:020000040800F2
:10000000780B0020C1010008112B00080B25000807
:100010000D2B0008290400086135000800000000CD
:100020000000000000000000000000004F2B00084E
:1000300057050008000000004D2B0008512B000858
:10004000DB010008DB010008DB010008DB01000820
:10005000DB010008DB010008DB010008DB01000810
:10006000DB010008DB010008DB010008DB01000800
:10007000DB010008DB010008DB010008DB010008F0
:10008000DB010008DB010008A1020008DB01000819
:10009000DB010008DB010008DB010008DB010008D0
:1000A000DB010008DB010008DB010008DB010008C0
:1000B000DB010008912C0008DB010008DB010008CF
:1000C000DB010008DB010008DB010008DB010008A0
:1000D000DB010008A1340008E134000821350008E4
:1000E000DB010008DB010008DB010008DB01000880
:1000F000DB010008DB010008DB010008DB01000870
:10010000DB010008DB010008DB010008DB0100085F
:10011000DB010008DB010008DB010008DB0100084F
:100120002D040008DB010008DB010008DB010008EA
:10013000DB010008DB010008DB010008DB0100082F
:10014000DB010008DB010008DB010008DB0100081F
:10015000DB010008DB010008DB010008DB0100080F
:10016000DB010008DB010008DB010008DB010008FF
:10017000DB010008DB010008DB01000800000000D3
:10018000DB010008DB010008DB010008DB010008DF
:10019000DB010008DB010008DB010008DB010008CF
:1001A000DB010008DB010008DB010008DFF80CD0F0
:1001B00000F018F80048004799350008780B002037
:1001C0000648804706480047FEE7FEE7FEE7FEE7F1
:1001D000FEE7FEE7FEE7FEE7FEE7FEE72D2C000860
:1001E000AD010008064C074D06E0E06840F0010351
:1001F00094E8070098471034AC42F6D3FFF7DAFFD3
:10020000F03500081036000870B50546AC6B206C60
:1002100000F0500050BB206C40F400702064206857
:10022000806800F04050E8B9A069D8B92068C06A79
:1002300000F4700020B12068806800F4806088B904
:100240002068406820F0200021684860206C20F47D
:1002500080702064206C00F4805018B9206C40F04D
:1002600001002064204600F049FA03E0A06BC16C55
:100270002846884770BD70B50546AC6B40202064A9
:10028000606C40F004006064204600F039FA70BDF4
:1002900070B50446A56B284600F031FA70BD000029
:1002A00010B5024800F02DFA10BD00000406002031
:1002B0005A49096821F44031594AC2F804131146D9
:1002C000D1F8041342681143544A11600168496827
:1002D00021F480710268516001684A68016942EA4C
:1002E0000121026851600168496821F0407102688B
:1002F0005160016849688268114302685160016871
:10030000896821F400610268916001688968C268A7
:10031000114302689160434A816A914218D0016892
:10032000896821F070610268916001688968826A59
:100330001143026891600168896821F040510268A8
:10034000916001688968C26A1143026891600BE09C
:100350000168896821F070610268916001688968AC
:1003600021F04051026891600168896821F0020122
:100370000268916001688A68816942EA4101026805
:100380009160016AD1B10168496841F40061026875
:1003900051600168496821F4604102685160016858
:1003A0004A68416A491E4FF4604393FAA3F3B3FAD3
:1003B00083F399400A4301684A6005E0016849688F
:1003C00021F40061026851600168C96A21F470017A
:1003D0000268D1620168CA6A818B491E42EA0151F2
:1003E0000268D1620168896821F400710268916035
:1003F00001688A68016B42EA4121026891600168E4
:10040000896821F480610268916001688A684169A5
:1004100042EA812102689160704700000423014094
:10042000002001400100000F00BFFEE710B50248A8
:1004300000F05EFB10BD00004C060020014608786D
:1004400010381823B0FBF3F20848805CC865032A13
:1004500005D908686FF30900001D886503E0086886
:100460006FF309008865886D70470000D635000875
:10047000014600208A6A8B6903BB32B1012A0CD085
:10048000022A10D0032A17D115E0CB6A03F080733B
:10049000B3F1807F00D101200FE0CB6AB3F1C07FC0
:1004A00000D1012009E0CB6A03F08073B3F1807FB3
:1004B00000D1012001E000E000BF35E08B69B3F519
:1004C000005F1BD132B1012A06D0022A0CD0032AC8
:1004D00012D10BE0012010E0CB6A03F08073B3F17E
:1004E000807F00D1012008E0012006E0CB6AB3F153
:1004F000C07F00D1012000E000BF15E032B1012A29
:1005000005D0022A04D0032A0CD103E000BF00BFAB
:10051000012008E0CB6A03F08073B3F1807F00D143
:10052000012000E000BF00BF704730B504682468B8
:1005300024F4802405682C60046863608468402C7F
:1005400004D10468A2600468E16003E00468A1606B
:100550000468E26030BD704700BFFEE770470000EE
:1005600018B502460020009000BF92F83C00012818
:1005700001D1022018BD012082F83C0000BF0868AC
:10058000092816D91068C0680B780A3B03EB4304AE
:100590000723A34098431368D8600B780A3B03EB0A
:1005A0004303886898401368DB6818431368D86071
:1005B00013E0106800690B7803EB43040723A340A2
:1005C0009843136818610B7803EB430388689840DD
:1005D00013681B691843136818614868072817D205
:1005E0001068406B0B795B1E03EB83041F23A34051
:1005F000984313685863088880B20B795B1E03EB3D
:100600008303984013685B6B18431368586331E0A9
:1006100048680D2817D21068006B0B79DB1F03EBBD
:1006200083041F23A340984313681863088880B28B
:100630000B79DB1F03EB8303984013681B6B184394
:100640001368186316E01068C06A0B790D3B03EB62
:1006500083041F23A34098431368D862088880B29C
:100660000B790D3B03EB830398401368DB6A184357
:100670001368D8621C4B1068984208D10868122889
:1006800005D11A48006840F48000C3F80403164BF3
:100690001068984220D1164B0868984202D008682A
:1006A000112819D11148006840F400000F4B186060
:1006B0000F4B086898420FD10E4800680E4BB0FBF4
:1006C000F3F000EB80004000009002E00098401E34
:1006D000009000980028F9D100BF002082F83C006B
:1006E00000BF00BF46E70000002001400423014096
:1006F000120000100000002040420F0070477047B9
:10070000704770B504460025002620680068C0F3D5
:10071000400520684068C0F3401695B38EB3206C46
:1007200000F0100018B9206C40F4007020642068BC
:10073000806800F04050E8B9A069D8B92068C06A64
:1007400000F4700020B12068806800F4806088B9EF
:100750002068406820F0200021684860206C20F468
:1007600080702064206C00F4805018B9206C40F038
:10077000010020642046FFF7C1FF6FF012002168DE
:10078000086020680068C0F3800520684068C0F3F6
:10079000C016E5B3DEB3206C00F0100018B9206C71
:1007A00040F4005020642068806800F4401038BB9A
:1007B0002068806B00F4401020B12068806800F44D
:1007C0008060E8B92068406800F48060C0B92068A3
:1007D000806800F0405098B9A06988B920684068E6
:1007E00020F0800021684860206C20F48050206454
:1007F000206C00F4807018B9206C40F00100206477
:100800002046FFF7ABFE6FF00C00216808602068FF
:10081000006800F0010520684068C0F3801685B1CB
:100820007EB12068006800F0010050B1206C40F4F7
:1008300080302064204600F053F86FF001002168FA
:10084000086020680068C0F3401520684068C0F365
:1008500080667DB176B1606C40F0020060646FF03C
:100860002000216808602046FFF74AFF6FF0200053
:100870002168086070BD000070B5044600250CB901
:10088000012070BD1549A06A884200D000BF206CCD
:1008900030B90020606484F83C00204600F022F863
:1008A000206C00F0100088B9206C20F4885040F0D3
:1008B000020020642046FFF7FBFC00206064206CEF
:1008C00020F0020040F00100206400E0012500BF9C
:1008D000002084F83C0000BF2846D2E70100000F4A
:1008E0007047000010B586B0044620492068884251
:1008F0003AD100BF002000901D48006840F480708D
:100900001B4908600846006800F48070009000BF32
:1009100000BF01200190032002900020039001A954
:10092000144800F0CDFA14481449086000204860CB
:10093000002112488160C1604FF48061016149006B
:100940004161890081610021C1614FF40031016280
:100950000021416200F0F0F908B1FFF7FDFD00BF92
:100960000648A063846300BF06B010BD00200140AC
:100970004438024000080240106402404C06002047
:10098000F8B504460D4616460020009000BF94F8C6
:100990003C00012801D10220F8BD012084F83C0070
:1009A00000BF2068806800F00100A0B9206880685E
:1009B00040F00100216888603C4800683C49B0FB79
:1009C000F1F000EB4000009002E00098401E009023
:1009D00000980028F9D12068806800F00100002804
:1009E00062D0206C40F20161884340F48070206442
:1009F0002068406800F4806028B1206C20F400502A
:100A000040F480502064206C00F4805020B1606C71
:100A100020F00600606401E00020606400BF002058
:100A200084F83C0000BF2348A16BC8632248A16B37
:100A300008642248A16BC8646FF022002168086036
:100A40002068406840F080602168486020688068C5
:100A500040F4807021688860226802F14C013346BE
:100A60002A46A06B00F0DCF91548006800F01F0072
:100A700058B92068806800F0405028B92068806824
:100A800040F08040216888600EE00E49206888426E
:100A90000AD12068806800F0405028B9206880683A
:100AA00040F0804021688860002075E70000002049
:100AB00040420F0009020008910200087702000876
:100AC0000423014000200140014691F8350002282E
:100AD00003D08020486501207047052081F835004B
:100AE0000868006820F001000A6810600020F3E741
:100AF000F8B50446002000908D4800684FF4165168
:100B0000B0FBF1F7A56D2E6894F85C1008208840C2
:100B1000304098B12068006800F0040070B120688F
:100B2000006820F004002168086094F85C10082038
:100B30008840A860606D40F00100606594F85C102A
:100B40007C488840304068B12068406900F08000EF
:100B500040B194F85C1077488840A860606D40F020
:100B60000200606594F85C107248C01C88403040F8
:100B700070B12068006800F0020048B194F85C1081
:100B80006C48C01C8840A860606D40F0040060653F
:100B900094F85C1010208840304078B320680068DA
:100BA00000F0080050B394F85C1010208840A86052
:100BB0002068006800F4802080B12068006800F49C
:100BC000002028B9206CC8B12046216C884715E068
:100BD000A06C98B12046A16C88470FE0206800689F
:100BE00000F4807028B92068006820F008002168AF
:100BF0000860206C10B12046216C884794F85C1086
:100C0000202088403040002865D02068006800F02F
:100C1000100000285FD094F85C1020208840A86065
:100C200094F83500052828D12068006820F01600C7
:100C3000216808602068406920F0800021684861D0
:100C4000206C08B9A06C28B12068006820F008006A
:100C50002168086094F85C103F208840A86000BFBD
:100C6000002084F8340000BF012084F83500206D96
:100C700010B12046216D8847F8BD2068006800F457
:100C8000802080B12068006800F4002028B9606CE2
:100C900010B12046616C88471DE0E06BD8B120465A
:100CA000E16B884717E02068006800F4807068B93D
:100CB0002068006820F010002168086000BF002054
:100CC00084F8340000BF012084F83500E06B10B1D7
:100CD0002046E16B8847606D38B3606D00F001001D
:100CE000F0B1052084F835002068006820F001008C
:100CF0002168086000BF0098401C0090B84200D9ED
:100D000005E02068006800F001000028F3D100BF72
:100D100000BF002084F8340000BF012084F83500B3
:100D2000E06C10B12046E16C884700BFA4E70000EA
:100D300000000020010080002DE9F041044600255C
:100D400000F0D2F9074614B90120BDE8F081606ACD
:100D500000B100BF00BF002084F8340000BF0220B3
:100D600084F835002068006820F0010021680860E0
:100D70000AE000F0B9F9C01B052805D920206065FC
:100D8000032084F83500E0E72068006800F00100E7
:100D90000028EED12068056820480540D4E901010B
:100DA0000843E16808432169084361690843A16970
:100DB0000843E1690843216A08430543606A04283F
:100DC00003D1D4E90B01084305432068056020687E
:100DD000456925F00705606A0543606A04280BD160
:100DE000A06A05432046FFF743FB28B14020606519
:100DF000012084F83500A8E7206845612046FFF708
:100E00001DFB064694F85C103F208840B06000202F
:100E10006065012084F83500002096E73F8010F0DF
:100E20002DE9F04704460D4616461F464FF00008D0
:100E3000D4F8589000BF94F83400012802D1022061
:100E4000BDE8F087012084F8340000BF94F8350035
:100E500001282BD1022084F83500002060653B4634
:100E6000324629462046FFF760FB94F85C103F208D
:100E70008840C9F808002068006840F01600216822
:100E800008602068406940F0800021684861206C5B
:100E900028B12068006840F00800216808602068D8
:100EA000006840F001002168086006E000BF0020F3
:100EB00084F8340000BF4FF002084046C0E700004D
:100EC000F8B502460B460025002400200021E6E08C
:100ED000012606FA01F51E6806EA0504AC4273D144
:100EE0005E68022E02D05E68122E13D1CF0802F186
:100EF000200656F827004E07F70E0F26BE40B043D7
:100F00004F07FF0E1E69BE403043CF0802F1200696
:100F100046F8270010684F000326BE40B0431E79F4
:100F200006F003064F00BE40304310605E68012E9D
:100F300008D05E68022E05D05E68112E02D05E6871
:100F4000122E13D190684F000326BE40B0434F00CD
:100F5000DE68BE4030439060506801268E40B0434A
:100F60001E79C6F300168E4030435060D0684F00A3
:100F70000326BE40B0434F009E68BE403043D06061
:100F80005E6806F08056B6F1805FA8D100BF0026EB
:100F90000096454E366846F48046434F3E603E46D6
:100FA000366806F48046009600BF00BF3F4E8F08AB
:100FB00056F827008E07370F0F26BE40B0433C4E31
:100FC000B24202D100262EE068E03A4EB24201D190
:100FD000012628E0384EB24201D1022623E0374EE6
:100FE000B24201D103261EE0354EB24201D10426A1
:100FF00019E0344EB24201D1052614E0324EB2421D
:1010000001D106260FE0314EB24201D107260AE097
:101010002F4EB24201D1082605E02E4EB24201D138
:10102000092600E00A268F073F0FBE4030431F4EBF
:101030008F0846F82700284E3068A0435E6806F403
:101040008036B6F5803F00D12043234E3060361DF8
:101050003068A0435E6806F40036B6F5003F00D164
:1010600020431D4E361D3060361D3068A0435E683B
:1010700006F48016B6F5801F00D12043164E0836C0
:101080003060361D3068A0435E6806F40016B6F581
:10109000001F00D12043104E0C363060491C10292F
:1010A000FFF416AFF8BD0000443802400838014094
:1010B000000002400004024000080240000C024010
:1010C000001002400014024000180240001C0240C0
:1010D0000020024000240240003C01400AB181612E
:1010E00001E00B048361704701480068704700000D
:1010F0000800002002480068401C01490860704751
:101100000800002010B50D48006840F400700B493D
:1011100008600846006840F480600860084600687F
:1011200040F480700860032000F094F8002000F084
:1011300007F800F019F8002010BD0000003C024044
:1011400070B50446074800684FF47A71B0FBF1F5BA
:10115000284600F03CFC00222146501E00F03CF8DE
:10116000002070BD0000002010B5032000F072F8D0
:10117000002211466FF00B0000F02EF800221146FD
:101180006FF00A0000F028F8002211466FF0090005
:1011900000F022F800221146501F00F01DF8002236
:1011A0001146101F00F018F800221146901E00F0A2
:1011B00013F800221146501E00F00EF810BD00BFBB
:1011C00000F01F02012191404209920002F1E02249
:1011D000C2F8001100BF70472DE9F05F80460D4650
:1011E0001646002701F096FC074639462A46334644
:1011F00001F00700C0F1070ABAF1040F02D94FF05D
:10120000040A01E0C0F1070AD14600F1040ABAF16C
:10121000070F02D24FF0000A01E0A0F1030AD44602
:101220004FF0010A0AFA09FAAAF1010A0AEA020AC7
:101230000AFA0CFA4FF0010B0BFA0CFBABF1010BA5
:101240000BEA030B4AEA0B042146404601F06AFC14
:10125000BDE8F09F00BF00F00702064B19684FF68B
:10126000FF031940044B0B4343EA0221014B196071
:1012700000BF70470CED00E00000FA0538B500240F
:1012800000BF002000902348006840F080502149B2
:1012900008600846006800F08050009000BF00BF62
:1012A0000120010491FAA1F1B1FA81F11A4A42F840
:1012B0002100FFF719FF044607E0FFF715FF001BA9
:1012C000B0F57A7F01D9032038BD1448406800F496
:1012D0008030B0F5803FF0D10120410491FAA1F1B6
:1012E000B1FA81F10C4A42F82100FFF7FDFE0446F5
:1012F00007E0FFF7F9FE001BB0F57A7F01D9032064
:10130000E2E70648406800F40030B0F5003FF0D155
:101310000020D9E74038024000000E420070004033
:1013200070B504460D4600266D48006800F00F00B9
:10133000A84209D26A490D700846006800F00F0003
:10134000A84201D0012070BD207800F002000228E0
:1013500007D16448006820F0F000A16808436149A3
:101360000860207800F00100002877D0606801282C
:1013700007D15C4808380068C0F34040B8B9012084
:10138000E1E76068022802D06068032807D1554869
:1013900008380068C0F3406048B90120D3E75148DD
:1013A00008380068C0F3400008B90120CBE74D4879
:1013B000006820F00300616808434A490860FFF7AD
:1013C00093FE06466068012810D108E0FFF78CFE06
:1013D000801B41F28831884201D90320B3E741489C
:1013E000006800F00C000428F0D137E060680228A3
:1013F00010D108E0FFF778FE801B41F28831884267
:1014000001D903209FE73748006800F00C00082846
:10141000F0D123E06068032810D108E0FFF764FEF4
:10142000801B41F28831884201D903208BE72D4887
:10143000006800F00C000C28F0D10FE008E0FFF786
:1014400053FE801B41F28831884201D903207AE79C
:101450002448006800F00C000028F0D12048006803
:1014600000F00F00A84209D91D490D700846006818
:1014700000F00F00A84201D0012064E7207800F0BE
:101480000400042807D11748006820F4E050E16800
:10149000084314490860207800F00800082808D1A3
:1014A0001048006820F46040216940EAC1000D49FD
:1014B000086000F04FF80B49096801F0F001F022D4
:1014C00092FAA2F2B2FA82F2D140074A515CC840C5
:1014D000064908600020FFF733FE002033E70000D4
:1014E000003C024008380240DE35000800000020C1
:1014F00001480068704700000000002000B5FFF7B9
:10150000F7FF0749096801F4E0514FF4E05292FAFD
:10151000A2F2B2FA82F2D140024A515CC84000BD48
:1015200008380240DE35000800B5FFF7E1FF074943
:10153000096801F460414FF4604292FAA2F2B2FAF3
:1015400082F2D140024A515CC84000BD08380240D6
:10155000DE35000870B50021002200230020274C52
:10156000246804F00C0424B1042C04D0082C41D1CC
:1015700003E0234840E023483EE0204C241F246839
:1015800004F03F011D4C241F246804F4800484B13E
:101590001C4CB4FBF1F5194C241F246847F6C076A7
:1015A000344096FAA6F6B6FA86F6F44005FB04F245
:1015B0000FE0134CB4FBF1F5104C241F246847F6E0
:1015C000C076344096FAA6F6B6FA86F6F44005FBE5
:1015D00004F20A4C241F246804F440344FF44035CC
:1015E00095FAA5F5B5FA85F5EC40641C6300B2FBED
:1015F000F3F001E0024800BF00BF70BD08380240B0
:101600000024F40000127A0038B504460025207842
:1016100000F00100002848D0DE48006800F00C000F
:1016200004280DD0DB48006800F00C00082811D118
:10163000D848001F006800F48000B0F5800F09D181
:10164000D44808380068C0F3404070B3606860BB9D
:10165000012038BD2079CF49891F0870606890B19A
:10166000FFF742FD054606E0FFF73EFD401B6428FC
:1016700001D90320EDE7C74808380068C0F34040AF
:101680000028F1D011E0FFF72FFD054606E0FFF737
:101690002BFD401B642801D90320DAE7BD48083838
:1016A0000068C0F340400028F1D1207800F002002B
:1016B000022869D1B748006800F00C0058B1B5485D
:1016C000006800F00C00082821D1B248001F006813
:1016D00000F48000D8B9AF4808380068C0F3400073
:1016E00020B1E068012801D00120B2E7A9480838FC
:1016F000006820F0F800F82292FAA2F2B2FA82F220
:10170000216991400843A349083908603CE0E0683A
:1017100028B30120A0490860FFF7E6FC054606E073
:10172000FFF7E2FC401B022801D9032091E799480A
:1017300008380068C0F340000028F1D09548083808
:10174000006820F0F800F82292FAA2F2B2FA82F2CF
:101750002169914008438F490839086014E000204E
:101760008D490860FFF7C0FC054606E0FFF7BCFCAA
:10177000401B022801D903206BE78648083800681F
:10178000C0F340000028F1D1207800F008000828BC
:101790002CD16069A8B1012080490860FFF7A4FC42
:1017A000054606E0FFF7A0FC401B022801D90320F4
:1017B0004FE778486C300068C0F340000028F1D053
:1017C00014E0002075490860FFF78EFC054606E02E
:1017D000FFF78AFC401B022801D9032039E76D4836
:1017E0006C300068C0F340000028F1D1207800F090
:1017F0000400042857D100BF00200090654838300D
:10180000006840F08050634938310860084600683D
:1018100000F08050009000BF00BF6148006840F4B5
:1018200080705F490860FFF75FFC054606E0FFF740
:101830005BFC401B022801D903200AE758480068D6
:1018400000F480700028F2D0207A52496831087084
:10185000A068A0B1FFF748FC054608E0FFF744FC8C
:10186000401B41F28831884201D90320F1E6494802
:1018700068300068C0F340000028EFD013E0FFF7A5
:1018800033FC054608E0FFF72FFC401B41F288318E
:10189000884201D90320DCE63E4868300068C0F386
:1018A00040000028EFD1A069F0B33A48006800F08A
:1018B0000C00082869D0A069022850D100203649C0
:1018C0000866FFF711FC054606E0FFF70DFC401B1C
:1018D000022801D90320BCE62E4808380068C0F36E
:1018E00040600028F1D1D4E90701084347F6C072EF
:1018F00092FAA2F2B2FA82F2616A9140084301229E
:10190000A16AC2EB51014FF4403292FAA2F2B2FA4C
:1019100082F2914008434FF0706292FAA2F2B2FA5A
:1019200082F2E16A914000E031E008431949091F61
:101930000860012018490866FFF7D6FB054606E057
:10194000FFF7D2FB401B022801D9032081E6114892
:1019500008380068C0F340600028F1D017E000208C
:101960000D490866FFF7C0FB054606E0FFF7BCFB24
:10197000401B022801D903206BE60648083800689E
:10198000C0F340600028F1D101E0012061E60020B1
:101990005FE600000838024000004742800E4742E0
:1019A00000700040042808D14FF0E021096941F09F
:1019B00004014FF0E022116107E04FF0E0210969D6
:1019C00021F004014FF0E02211617047704770B5BB
:1019D00004462546681EB0F1807F01D301200FE048
:1019E000681E4FF0E02148610F214FF0FF3001F0F9
:1019F00099F800204FF0E02188610720086100205D
:101A000070BD10B5FFF7E2FF10BD7047704702468A
:101A100000BF92F83800012801D102207047012050
:101A200082F8380000BF022082F839001068406850
:101A300020F0700013685860106840680B68184305
:101A4000136858601068806820F080001368986000
:101A5000106880684B68184313689860012082F80A
:101A6000390000BF002082F8380000BF00BFD5E772
:101A700010B504460CB9012010BD94F8390028B9FE
:101A8000002084F83800204600F00CF8022084F88A
:101A90003900211D206801F003F9012084F8390084
:101AA0000020E9E708B51E4A016891420FD100BF46
:101AB000002100911B49096841F00201194A116097
:101AC0001146096801F00201009100BF27E0164AA3
:101AD000016891420FD100BF0021009111490968AE
:101AE00041F080010F4A11601146096801F0800140
:101AF000009100BF13E00D4A016891420FD100BF71
:101B0000002100910749096841F48071054A11607C
:101B10001146096801F48071009100BF00BF08BD43
:101B20000004004040380240001C004000200040FB
:101B300001460868C06840F001000A68D060086883
:101B4000006840F001000A681060002070472DE92D
:101B5000F04104460D46002600BF94F838000128E5
:101B600002D10220BDE8F081012084F8380000BFD6
:101B7000022084F839002068866826F0770626F46B
:101B80007F4620688660286850283BD00CDC2028DF
:101B900060D004DC002853D0102865D155E03028EF
:101BA0005DD0402860D141E0602835D070280DD04C
:101BB000B0F5805F03D0B0F5005F55D115E0206827
:101BC000806820F00700216888604EE0D5E90213A4
:101BD0006A68206801F0E4F82068866826F07706D5
:101BE00046F07706206886603FE0D5E902136A6810
:101BF000206801F0D5F82068806840F480402168B2
:101C0000886032E0EA686968206801F0BFF9502115
:101C1000206801F0D1F828E0EA686968206801F0DE
:101C2000CAF96021206801F0C7F81EE0EA68696817
:101C3000206801F0ABF94021206801F0BDF814E004
:101C40000021206801F0B8F80FE01021206801F0B1
:101C5000B3F80AE02021206801F0AEF805E0302159
:101C6000206801F0A9F800E000BF00BF012084F85F
:101C7000390000BF002084F8380000BF00BF71E7C2
:101C8000704710B5044620680069C0F34000D8B121
:101C90002068C068C0F34000B0B16FF00200216856
:101CA0000861012020762068806900F0030018B1E7
:101CB0002046FFF7E5FF05E0204600F0DBF8204670
:101CC00000F078F90020207620680069C0F38000D9
:101CD000D8B12068C068C0F38000B0B16FF00400D4
:101CE00021680861022020762068806900F4407035
:101CF00018B12046FFF7C4FF05E0204600F0BAF80F
:101D0000204600F057F90020207620680069C0F3D3
:101D1000C000D8B12068C068C0F3C000B0B16FF097
:101D2000080021680861042020762068C06900F05E
:101D3000030018B12046FFF7A3FF05E0204600F09E
:101D400099F8204600F036F90020207620680069D6
:101D5000C0F30010D8B12068C068C0F30010B0B163
:101D60006FF0100021680861082020762068C069A3
:101D700000F4407018B12046FFF782FF05E02046CE
:101D800000F078F8204600F015F900202076206851
:101D9000006900F0010058B12068C06800F001003F
:101DA00030B16FF0010021680861204600F02AF987
:101DB00020680069C0F3C01058B12068C068C0F343
:101DC000C01030B16FF08000216808612046FFF735
:101DD0001CFE20680069C0F3801058B12068C068FC
:101DE000C0F3801030B16FF04000216808612046D8
:101DF00000F01EF920680069C0F3401058B1206857
:101E0000C068C0F3401030B16FF020002168086155
:101E10002046FFF7FBFD10BD10B586B00446124901
:101E2000206888420DD18015019002200290002088
:101E3000039004900920059001A90C48FFF740F891
:101E400010E00B49206888420CD140150190022017
:101E500002900020039004900920059001A90348F6
:101E6000FFF72EF806B010BD001C00400014024021
:101E700000200040704770B504460D46164600BF6E
:101E800094F83800012801D1022070BD012084F8A7
:101E9000380000BF022084F8390036B1042E1BD070
:101EA000082E31D00C2E5ED145E02946206800F086
:101EB0008DFF2068806940F00800216888612068F3
:101EC000806920F0040021688861206880692969A0
:101ED00008432168886147E02946206800F0AEFF8A
:101EE0002068806940F4006021688861206880690A
:101EF00020F480602168886120688069296940EA4F
:101F00000120216888612FE02946206800F0D2FF77
:101F10002068C06940F008002168C8612068C06975
:101F200020F004002168C8612068C069296908435D
:101F30002168C86118E02946206800F0F7FF206892
:101F4000C06940F400602168C8612068C06920F45D
:101F500080602168C8612068C069296940EA012061
:101F60002168C86100E000BF00BF012084F839008B
:101F700000BF002084F8380000BF00BF85E710B51F
:101F800004460CB9012010BD94F8390028B900208E
:101F900084F83800204600F00CF8022084F839005C
:101FA000211D206800F07CFE012084F8390000200B
:101FB000E9E770477047000030B504460D4601223E
:101FC0002946206800F0DEFE0C492068884203D0D4
:101FD0000B492068884201D1012000E0002028B18F
:101FE0002068406C40F40040216848642068006824
:101FF00040F0010021680860002030BD0000014071
:10200000000401400146084881420BD1002007E04E
:10201000064A32F81020521C044B23F81020401CB2
:102020000228F5DB70470000C805002020000020D2
:102030007047704701460022002391F8392091F83B
:102040003A3042EA030070472DE9F0470446206821
:1020500005682068C668206847694FF00008C146D7
:1020600005F00F08B8F1000F0AD105F0200038B1D3
:1020700006F0200020B1204600F0DDFFBDE8F0872B
:10208000B8F1000F6DD007F0010018B906F4907098
:10209000002866D005F0010030B106F4807018B158
:1020A000E06B40F00100E06305F0040030B107F0A0
:1020B000010018B1E06B40F00200E06305F002009F
:1020C00030B107F0010018B1E06B40F00400E063AC
:1020D00005F0080030B107F0010018B1E06B40F0E6
:1020E0000800E063E06B68B305F0200028B106F05B
:1020F000200010B1204600F09EFF20684069C0F328
:102100008019E06B00F0080010B9B9F1000F22D07F
:10211000204600F070FF2068406900F04000B0B138
:102120002068406920F0400021684861606B50B130
:102130001748616B0865606BFEF7C6FC10B1606BF9
:10214000016D88470CE02046FFF773FF08E020464A
:10215000FFF76FFF04E02046FFF76BFF0020E0630E
:102160008CE705F0800030B106F0800018B1204601
:1021700001F062F982E705F0400030B106F040005E
:1021800018B1204600F047FF78E700BF76E700006F
:10219000E32F000810B504460CB9012010BDA0695A
:1021A00000B100E000BF94F8390028B9002084F89D
:1021B0003800204600F028F8242084F839002068F0
:1021C000C06820F400502168C860204600F080FFFD
:1021D0002068006920F49040216808612068406907
:1021E00020F02A00216848612068C06840F400504F
:1021F0002168C8600020E063202084F8390084F85A
:102200003A000020CAE7000010B586B004463F49F6
:10221000206888421FD100BF002000903C48006821
:1022200040F010003A4908600846006800F01000CD
:10223000009000BF00BF4FF4C060019002200290E8
:1022400001200390022004900720059001A9314845
:10225000FEF736FE57E030492068884220D100BFA3
:10226000002000902A48001F006840F400302849F0
:10227000091F08600846006800F40030009000BFA5
:1022800000BF0C2001900220029001200390022048
:1022900004900720059001A91E48FEF711FE32E0C8
:1022A0001E49206888422ED100BF002000901848A7
:1022B000001F006840F480201549091F0860084687
:1022C000006800F48020009000BF00BF0815019056
:1022D0000220029001200390022004900720059024
:1022E00001A90F48FEF7ECFD4FF4006001900220B9
:1022F000029001200390022004900720059001A97C
:102300000748FEF7DDFD06B010BD000000100140DB
:1023100044380240000002400044004000480040B1
:102320000004024010B5034693F83A00202829D152
:1023300001B10AB9012010BD00BF93F8380001288F
:1023400001D10220F7E7012083F8380000BF99622D
:102350009A85DA850020D863222083F83A0000BFEE
:10236000002083F8380000BF1868406940F0010081
:102370001C6860611868C06840F490701C68E06078
:102380000020D8E70220D6E74D4A016891422ED1BD
:102390004C4909782A2905D101214B4A1180002195
:1023A0004A4A118047490978232905D10021464A24
:1023B00011800121454A11804349098801297DD1B5
:1023C00040490978424A1288C2F30D02414B9954A0
:1023D0003F490988491C3E4A118011460988C7298E
:1023E0006CDD0021384A1180394A118066E03A4A92
:1023F0000168914230D139490978AA2907D10121D0
:10240000374A11800021374A1180374A11803349F9
:102410000978552905D10021314A11800121314A1D
:1024200011802F490988012948D12C4909782E4A61
:102430001288C2F30D022D4B99542B490988491C6F
:10244000294A118011460988C72937DD0021244A0D
:102450001180254A118031E0254A016891422DD131
:10246000244909782A2905D10121234A1180002114
:10247000224A11801F490978232905D100211E4ACB
:10248000118001211D4A11801B490988012915D19C
:10249000184909781A4A1288C2F30D02194B995447
:1024A00017490988491C164A118011460988C7290D
:1024B00004DD0021104A1180114A1180704700008C
:1024C0000010014014000020280000202A000020F5
:1024D0000C00002070010020004400401800002083
:1024E0002C0000202E0000201600002000030020F9
:1024F000004800401C000020300000203200002076
:102500001A000020C8030020704700BFFEE700004B
:1025100000B587B000BF002001901048006840F06F
:1025200002000E4908600846006800F002000190B1
:1025300000BF00BF4FF44070029001200390049050
:102540000220059002A90648FEF7BAFC01200549C1
:1025500008600549C1F8A00207B000BD303802404C
:1025600000040240A48240420080404200B587B08F
:1025700000BF002001901048006840F002000E49A2
:1025800008600846006800F00200019000BF00BF2C
:10259000C02002900120039004900220059002A91F
:1025A0000648FEF78DFC0120054908600549C1F881
:1025B0009C0207B000BD0000303802400004024019
:1025C00098824042008040421FB51348134908607A
:1025D0004FF4803048600021104881600161012182
:1025E000816100210162C162C1600121C161016399
:1025F0004161FEF741F908B1FDF7AEFF0A200090F6
:10260000012001900020029069460448FDF7A8FFD0
:1026100008B1FDF7A1FF1FBD002001400406002006
:1026200008B500BF002000900648006840F4800014
:10263000044908600846006800F48000009000BF6C
:1026400000BF08BD3038024000B587B000BF002091
:1026500001909748006840F02000954908600846BE
:10266000006800F02000019000BF00BF00BF002004
:1026700001900846006840F0800008600846006845
:1026800000F08000019000BF00BF00BF002001905B
:102690000846006840F0010008600846006800F045
:1026A0000100019000BF00BF00BF0020019008465C
:1026B000006840F0020008600846006800F0020070
:1026C000019000BF00BF00BF0020019008460068D5
:1026D00040F0040008600846006800F00400019023
:1026E00000BF00BF00BF002001900846006840F016
:1026F000080008600846006800F00800019000BF6C
:1027000000BF00BF002001900846006840F01000A4
:1027100008600846006800F01000019000BF00BF8C
:1027200000BF002001900846006840F040000860AB
:102730000846006800F04000019000BF00BF00BFE5
:10274000002001900846006840F480700860084648
:10275000006800F48070019000BF00BFA0200290CC
:102760000120039004900320059002A95148FEF730
:10277000A7FB042002900120039004900320059001
:1027800002A94D48FEF79CFB7820029000200390A0
:10279000012004900320059002A94748FEF790FB12
:1027A0000C2002900020039001200490032005904B
:1027B00002A94248FEF784FB4FF4604002900120DA
:1027C000039004900320059002A93D48FEF778FB92
:1027D0004FF4807002900120039004900320059034
:1027E00002A93848FEF76CFB4FF4A050029001207C
:1027F000039004900320059002A93048FEF760FB87
:102800004FF40040029001200390049003200590B3
:1028100002A92D48FEF754FB4020029001200390AE
:1028200004900320059002A92848FEF749FB4FF4C5
:10283000407002900120039004900320059002A9AB
:102840001C48FEF73DFB012210211C48FEF746FC08
:10285000012220211748FEF741FC01228021154862
:10286000FEF73CFC00224FF400411748FEF736FC0F
:10287000002204211048FEF731FC012291020F488A
:10288000FEF72CFC012211030C48FEF727FC012265
:1028900040210E48FEF722FC012211020548FEF7F6
:1028A0001DFC012251020348FEF718FC07B000BDD1
:1028B0003038024000080240001002400018024078
:1028C000001C02400020024000040240000C0240B4
:1028D00010B5002201211220FEF77EFC1220FEF727
:1028E0006EFC002204212620FEF776FC2620FEF74F
:1028F00066FC002205212720FEF76EFC2720FEF74C
:102900005EFC002202213820FEF766FC3820FEF72C
:1029100056FC002206211D20FEF75EFC1D20FEF75E
:102920004EFC0A48FFF704F900210948FFF744FB71
:1029300000210848FFF740FB642207490748FEF7DB
:102940001FF808B1FDF708FE10BD0000C805002003
:10295000500500208C050020AC0600200406002055
:1029600000B587B015481649086059204860002115
:102970001348816040F2F311C16000210161FFF74B
:1029800077F808B1FDF7E8FD0D48FFF7F8FA08B150
:10299000FDF7E2FD60200090F920019000200290F8
:1029A0000490002269460648FFF765FA08B1FDF772
:1029B000D3FD0348FFF730FA07B000BD001C00400C
:1029C0005005002000B587B0154816490860592009
:1029D000486000211348816040F2F311C16000217A
:1029E0000161FFF745F808B1FDF7B6FD0D48FFF7A7
:1029F000C6FA08B1FDF7B0FD60200090F920019003
:102A0000002002900490002269460648FFF733FA3E
:102A100008B1FDF7A1FD0348FFF7FEF907B000BDBF
:102A2000002000408C05002000B587B013481449F1
:102A3000086042F227304860002111488160092176
:102A4000C16000210161FFF713F808B1FDF784FDB3
:102A50004FF48050039003A90948FFF778F808B1B4
:102A6000FDF77AFD00200190029001A90448FEF7CD
:102A7000CEFF08B1FDF770FD07B000BD00040040B7
:102A8000C805002010B50D480D4908604FF461409D
:102A9000486000210A488160C16001610C214161E8
:102AA00000218161C161FFF775FB08B1FDF754FD9D
:102AB000012204490248FFF735FC10BD00440040E4
:102AC000D00400201800002010B50D480D49086002
:102AD0004FF4E130486000210A488160C160016123
:102AE0000C21416100218161C161FFF753FB08B1F5
:102AF000FDF732FD012204490248FFF713FC10BD27
:102B000000480040100500201C00002000BFFEE728
:102B10007047000002480068C0F3022070470000C0
:102B20000CED00E010B5002807DA0A07140E054A7C
:102B300000F00F031B1FD45403E00A07130E024AD0
:102B4000135410BD18ED00E000E400E0704770473A
:102B500010B5FEF7CFFAFEF754FF10BD10B592B0D6
:102B600000BF002000902F48006840F080502D49A1
:102B700008600846006800F08050009000BF00BF69
:102B800000BF002000902848006840F440402649DB
:102B900008600846006800F44040009000BF00BF95
:102BA00001200690079002200C9041050D9108210C
:102BB0000E914FF4B4710F910221109104211191E3
:102BC00006A8FEF721FD08B1FDF7C6FCFEF756FB8F
:102BD00008B1FDF7C1FC0F200190022002900020F7
:102BE00003904FF4A05004904FF4805005900521BD
:102BF00001A8FEF795FB08B1FDF7AEFCFEF778FCE7
:102C00004FF47A71B0FBF1F42046FEF7E0FE0420A9
:102C1000FEF7C8FE00221146501EFEF7DDFA12B084
:102C200010BD0000403802400070004014480068A9
:102C300040F47000124908601248006840F001003A
:102C40001049086000200F49083108600D480068ED
:102C50000D4908400B4908600C48091D0860081F11
:102C6000006820F48020091F0860002005490C310D
:102C700008604FF00060024980390860704700002A
:102C800088ED00E000380240FFFFF6FE103000241F
:102C900010B50248FEF7F5FF10BD0000C805002082
:102CA000002202682C4B98420ED0B0F1804F0BD01E
:102CB0002A4B984208D02A4B984205D0294B98427B
:102CC00002D0294B984201D1012300E000231BB11F
:102CD00022F070024B681A431F4B984220D0B0F18B
:102CE000804F1DD01D4B98421AD01D4B984217D0D3
:102CF0001C4B984214D01C4B984211D01B4B98424D
:102D00000ED01B4B98420BD01A4B984208D01A4B4E
:102D1000984205D0194B984202D0194B984201D1E4
:102D2000012300E000231BB122F44072CB681A4358
:102D300002608B68C3620B688362074B984202D0C3
:102D4000094B984201D1012300E000230BB10B692C
:102D50000363012343617047000001400004004009
:102D600000080040000C0040000401400040014009
:102D7000004401400048014000180040001C004091
:102D80000020004030B50023012404FA01F3046A56
:102D90009C430462046A02FA01F52C43046230BDCC
:102DA00030B50C460021816821F47F4142EA0325B9
:102DB00025432943816030BD0A460021816821F006
:102DC000700142F0070319438160704730B5002459
:102DD00000220023056A25F001050562026A4368A6
:102DE000846924F0700424F003040D682C4322F05D
:102DF00002028D682A430F4DA84202D00E4DA84210
:102E000001D1012500E000256DB122F00802CD6856
:102E10002A4322F0040223F4807323F400734D69E3
:102E20002B438D692B43436084614D684563026287
:102E300030BD0000000001400004014030B5002416
:102E400000220023056A25F010050562026A436826
:102E5000846924F4E04424F440740D6844EA0524B1
:102E600022F020028D6842EA0512104DA84202D0DD
:102E70000F4DA84201D1012500E0002585B122F0C7
:102E80008002CD6842EA051222F0400223F48063FA
:102E900023F400634D6943EA85038D6943EA8503A2
:102EA000436084614D688563026230BD000001406B
:102EB0000004014030B5002400220023056A25F4F7
:102EC00080750562026A4368C46924F0700424F0C6
:102ED00003040D682C4322F400728D6842EA052237
:102EE000104DA84202D0104DA84201D1012500E0AA
:102EF000002585B122F40062CD6842EA052222F461
:102F0000806223F4805323F400534D6943EA051390
:102F10008D6943EA05134360C4614D68C56302626D
:102F200030BD0000000001400004014030B5002227
:102F300000230024056A25F480550562036A44686D
:102F4000C26922F4E04222F440720D6842EA05228E
:102F500023F400538D6843EA05330A4DA84202D09A
:102F6000094DA84201D1012500E0002525B124F436
:102F700080444D6944EA85144460C2614D6805642B
:102F8000036230BD000001400004014030B50B4633
:102F9000144600210022026A056A25F00105056237
:102FA000816921F0F00141EA041122F00A021A437A
:102FB0008161026230BD30B50B461446002100220B
:102FC000056A25F0100505628169026A21F47041E5
:102FD00041EA043122F0A00242EA03128161026256
:102FE00030BD70B50546AC6B0020E085E08420461E
:102FF000FFF71FF870BD0168C96821F4907102687D
:10300000D1600168496921F0010102685161202104
:1030100080F83A10704710B504462068C06820F068
:1030200040002168C860202084F839002046FFF75E
:103030006BFA002010BD70B5044694F83A002228BF
:1030400044D1A068B0F5805F13D1A56A206940B96A
:1030500020684068C0F308002880A06A801CA06235
:1030600019E020684068C0B22880A06A401CA062B5
:1030700011E0206938B920684068C1B2A26A501CCA
:10308000A062117007E02068406800F07F01A26A2A
:10309000501CA0621170E08D401E80B2E08598B98E
:1030A0002068C06820F490702168C860206840697A
:1030B00020F0010021684861202084F83A00204671
:1030C000FFF762F9002070BD0020FCE70220FAE75C
:1030D0002DE9F041044600252068056925F4405596
:1030E000E0680543206805612068C56849F20C6006
:1030F00085432169A068084361690843E169084381
:1031000005432068C5602068456925F44075A069BD
:10311000054320684561E069B0F5004F7ED1C449A0
:103120002068884203D0C349206888425DD1FEF7F9
:10313000FBF900EBC00101EB001061684900B0FB36
:10314000F1F06421B0FBF1F00601FEF7EDF900EBC0
:10315000C00101EB001061684900B0FBF1F7FEF718
:10316000E3F900EBC00101EB001061684900B0FB1E
:10317000F1F06421B0FBF1F000EBC00101EB0010B5
:10318000A7EB8000322101EBC0006421B0FBF1F01D
:1031900000F0F80006EB4006FEF7C6F900EBC001B0
:1031A00001EB001061684900B0FBF1F7FEF7BCF9D4
:1031B00000EBC00101EB001061684900B0FBF1F0C9
:1031C0006421B0FBF1F000EBC00101EB0010A7EBB4
:1031D0008000322101EBC0006421B0FBF1F000F06F
:1031E000070030442168886020E1FEF787F900EB92
:1031F000C00101EB001061684900B0FBF1F06421EF
:10320000B0FBF1F00601FEF779F900EBC00101EB2C
:10321000001061684900B0FBF1F700E045E0FEF7FF
:103220006DF900EBC00101EB001061684900B0FBD3
:10323000F1F06421B0FBF1F000EBC00101EB0010F4
:10324000A7EB8000322101EBC0006421B0FBF1F05C
:1032500000F0F80006EB4006FEF750F900EBC00165
:1032600001EB001061684900B0FBF1F7FEF746F989
:1032700000EBC00101EB001061684900B0FBF1F008
:103280006421B0FBF1F000EBC00101EB0010A7EBF3
:103290008000322101EBC0006421B0FBF1F000F0AE
:1032A0000700304421688860C0E061492068884296
:1032B00003D06049206888425CD1FEF735F900EB05
:1032C000C00101EB001061688900B0FBF1F6FEF768
:1032D0002BF900EBC00101EB001061688900B0FB25
:1032E000F1F06421B0FBF1F000EBC00101EB001044
:1032F000A6EB8000322101EB00106421B0FBF1F05D
:1033000000F0F006FEF710F900EBC00101EB001031
:1033100061688900B0FBF1F06421B0FBF1F006EBCD
:103320000016FEF701F900EBC00101EB0010616827
:103330008900B0FBF1F7FEF7F7F800EBC00101EBF5
:10334000001061688900B0FBF1F06421B0FBF1F07E
:1033500000EBC00101EB0010A7EB8000322101EB74
:1033600000106421B0FBF1F000F00F003044216840
:1033700088605BE0FEF7C2F800EBC00101EB0010D3
:1033800061688900B0FBF1F6FEF7B8F800EBC00108
:1033900001EB001061688900B0FBF1F06421B0FB23
:1033A000F1F000EBC00101EB0010A6EB8000322130
:1033B00001EB00106421B0FBF1F000F0F006FEF725
:1033C0009DF800EBC00101EB001061688900B0FBC3
:1033D000F1F06421B0FBF1F006EB0016FEF78EF879
:1033E00000EBC00101EB001061688900B0FBF1F750
:1033F000FEF784F800EBC00101EB00106168890062
:10340000B0FBF1F06421B0FBF1F000EBC00101EB87
:103410000010A7EB8000322101EB00106421B0FB0B
:10342000F1F000F00F00304421688860BDE8F081C1
:103430000010014000140140014691F83900212894
:103440002CD18868B0F5805F0FD10A6A1088C0F36C
:1034500008000B685860086918B9086A801C08627F
:1034600009E0086A401C086205E00B6A581C086203
:1034700018780B685860C88C401E80B2C88458B950
:103480000868C06820F080000B68D8600868C068D1
:1034900040F040000B68D860002070470220FCE735
:1034A00010B500240C48FEF7CFFD00BF01E0641CFE
:1034B00000BF0948FEF7BEFD2028F8D100BF002458
:1034C00001E0641C00BF012204490348FEF72AFF03
:1034D0000028F6D100BF10BD900400201400002089
:1034E00010B500240C48FEF7AFFD00BF01E0641CDE
:1034F00000BF0948FEF79EFD2028F8D100BF002438
:1035000001E0641C00BF012204490348FEF70AFFE2
:103510000028F6D100BF10BDD00400201800002004
:1035200010B500240C48FEF78FFD00BF01E0641CBD
:1035300000BF0948FEF77EFD2028F8D100BF002417
:1035400001E0641C00BF012204490348FEF7EAFEC3
:103550000028F6D100BF10BD100500201C0000207F
:1035600000BFFEE702E008C8121F08C1002AFAD116
:1035700070477047002001E001C1121F002AFBD1F3
:103580007047000010B504460420FEF70BFA01480E
:10359000046010BD04000020FDF7B4FDFFF7DEFA63
:1035A000B420FFF7EFFFFFF74FF8FFF739F8FFF709
:1035B00069FAFFF789FAFFF7D3F9FFF703FAFFF784
:1035C00033FAFFF701F8FEF7D1FFFEF7A1FFFFF78F
:1035D0007FF900BFFEE70006101600061016000077
:1035E00000000102030401020304060708090000A9
:1035F0001036000800000020A80000006435000814
:10360000B8360008A8000020D00A00007435000871
:103610000024F40000000000000000000000000092
:10362000000000000000000000000000000000009A
:103630000000000001000000000000000000000089
:103640000000000000000000000000000000D007A3
:10365000D007000000000000000000000000000093
:1036600000000000000000003031323334353637BE
:1036700038392E76002A4F424A2A5452412A54534E
:103680004B2A4C4F43667723626B23726B23237262
:103690006D23626D237774233031320000003030A7
:1036A0003030AA09200000000003000255AA0210D1
:0836B00055AA021255010104A4
:04000005080001AD41
:00000001FF
